{
  "_format": "hh-sol-artifact-1",
  "contractName": "RevenueBasedLoan",
  "sourceName": "contracts/RevenueBasedLoan.sol",
  "abi": [
    {
      "inputs": [
        {
          "internalType": "string",
          "name": "name_",
          "type": "string"
        },
        {
          "internalType": "string",
          "name": "symbol_",
          "type": "string"
        },
        {
          "internalType": "uint256",
          "name": "loanAmount_",
          "type": "uint256"
        },
        {
          "internalType": "uint16",
          "name": "payoutRate_",
          "type": "uint16"
        },
        {
          "internalType": "uint256",
          "name": "loanFee_",
          "type": "uint256"
        },
        {
          "internalType": "address",
          "name": "borrower_",
          "type": "address"
        },
        {
          "internalType": "uint256",
          "name": "timeToFill_",
          "type": "uint256"
        },
        {
          "internalType": "string",
          "name": "baseURI_",
          "type": "string"
        }
      ],
      "stateMutability": "nonpayable",
      "type": "constructor"
    },
    {
      "anonymous": false,
      "inputs": [
        {
          "indexed": true,
          "internalType": "address",
          "name": "owner",
          "type": "address"
        },
        {
          "indexed": true,
          "internalType": "address",
          "name": "approved",
          "type": "address"
        },
        {
          "indexed": true,
          "internalType": "uint256",
          "name": "tokenId",
          "type": "uint256"
        }
      ],
      "name": "Approval",
      "type": "event"
    },
    {
      "anonymous": false,
      "inputs": [
        {
          "indexed": true,
          "internalType": "address",
          "name": "owner",
          "type": "address"
        },
        {
          "indexed": true,
          "internalType": "address",
          "name": "operator",
          "type": "address"
        },
        {
          "indexed": false,
          "internalType": "bool",
          "name": "approved",
          "type": "bool"
        }
      ],
      "name": "ApprovalForAll",
      "type": "event"
    },
    {
      "anonymous": false,
      "inputs": [
        {
          "indexed": false,
          "internalType": "uint256",
          "name": "value",
          "type": "uint256"
        }
      ],
      "name": "BorrowerWithdrawal",
      "type": "event"
    },
    {
      "anonymous": false,
      "inputs": [
        {
          "indexed": false,
          "internalType": "uint256",
          "name": "value",
          "type": "uint256"
        },
        {
          "indexed": false,
          "internalType": "uint256",
          "name": "loanId",
          "type": "uint256"
        },
        {
          "indexed": false,
          "internalType": "address",
          "name": "lender",
          "type": "address"
        }
      ],
      "name": "LenderWithdrawal",
      "type": "event"
    },
    {
      "anonymous": false,
      "inputs": [
        {
          "indexed": false,
          "internalType": "uint256",
          "name": "value",
          "type": "uint256"
        }
      ],
      "name": "LoanPayment",
      "type": "event"
    },
    {
      "anonymous": false,
      "inputs": [
        {
          "indexed": true,
          "internalType": "address",
          "name": "from",
          "type": "address"
        },
        {
          "indexed": true,
          "internalType": "address",
          "name": "to",
          "type": "address"
        },
        {
          "indexed": true,
          "internalType": "uint256",
          "name": "tokenId",
          "type": "uint256"
        }
      ],
      "name": "Transfer",
      "type": "event"
    },
    {
      "inputs": [
        {
          "internalType": "address",
          "name": "to",
          "type": "address"
        },
        {
          "internalType": "uint256",
          "name": "tokenId",
          "type": "uint256"
        }
      ],
      "name": "approve",
      "outputs": [],
      "stateMutability": "nonpayable",
      "type": "function"
    },
    {
      "inputs": [
        {
          "internalType": "address",
          "name": "owner",
          "type": "address"
        }
      ],
      "name": "balanceOf",
      "outputs": [
        {
          "internalType": "uint256",
          "name": "",
          "type": "uint256"
        }
      ],
      "stateMutability": "view",
      "type": "function"
    },
    {
      "inputs": [],
      "name": "baseURI",
      "outputs": [
        {
          "internalType": "string",
          "name": "",
          "type": "string"
        }
      ],
      "stateMutability": "view",
      "type": "function"
    },
    {
      "inputs": [],
      "name": "borrower",
      "outputs": [
        {
          "internalType": "address",
          "name": "",
          "type": "address"
        }
      ],
      "stateMutability": "view",
      "type": "function"
    },
    {
      "inputs": [
        {
          "internalType": "uint256",
          "name": "_loanId",
          "type": "uint256"
        }
      ],
      "name": "calculateSettledPayout",
      "outputs": [
        {
          "internalType": "uint256",
          "name": "",
          "type": "uint256"
        }
      ],
      "stateMutability": "view",
      "type": "function"
    },
    {
      "inputs": [],
      "name": "daysToFill",
      "outputs": [
        {
          "internalType": "uint256",
          "name": "",
          "type": "uint256"
        }
      ],
      "stateMutability": "view",
      "type": "function"
    },
    {
      "inputs": [],
      "name": "fundedAmount",
      "outputs": [
        {
          "internalType": "uint256",
          "name": "",
          "type": "uint256"
        }
      ],
      "stateMutability": "view",
      "type": "function"
    },
    {
      "inputs": [
        {
          "internalType": "uint256",
          "name": "tokenId",
          "type": "uint256"
        }
      ],
      "name": "getApproved",
      "outputs": [
        {
          "internalType": "address",
          "name": "",
          "type": "address"
        }
      ],
      "stateMutability": "view",
      "type": "function"
    },
    {
      "inputs": [
        {
          "internalType": "uint256",
          "name": "",
          "type": "uint256"
        }
      ],
      "name": "idToLoanAmount",
      "outputs": [
        {
          "internalType": "uint256",
          "name": "",
          "type": "uint256"
        }
      ],
      "stateMutability": "view",
      "type": "function"
    },
    {
      "inputs": [
        {
          "internalType": "uint256",
          "name": "",
          "type": "uint256"
        }
      ],
      "name": "idToWithdrawnAmount",
      "outputs": [
        {
          "internalType": "uint256",
          "name": "",
          "type": "uint256"
        }
      ],
      "stateMutability": "view",
      "type": "function"
    },
    {
      "inputs": [
        {
          "internalType": "address",
          "name": "owner",
          "type": "address"
        },
        {
          "internalType": "address",
          "name": "operator",
          "type": "address"
        }
      ],
      "name": "isApprovedForAll",
      "outputs": [
        {
          "internalType": "bool",
          "name": "",
          "type": "bool"
        }
      ],
      "stateMutability": "view",
      "type": "function"
    },
    {
      "inputs": [],
      "name": "lend",
      "outputs": [],
      "stateMutability": "payable",
      "type": "function"
    },
    {
      "inputs": [],
      "name": "loanAmount",
      "outputs": [
        {
          "internalType": "uint256",
          "name": "",
          "type": "uint256"
        }
      ],
      "stateMutability": "view",
      "type": "function"
    },
    {
      "inputs": [],
      "name": "loanFee",
      "outputs": [
        {
          "internalType": "uint256",
          "name": "",
          "type": "uint256"
        }
      ],
      "stateMutability": "view",
      "type": "function"
    },
    {
      "inputs": [],
      "name": "loansEmitted",
      "outputs": [
        {
          "internalType": "uint64",
          "name": "",
          "type": "uint64"
        }
      ],
      "stateMutability": "view",
      "type": "function"
    },
    {
      "inputs": [],
      "name": "name",
      "outputs": [
        {
          "internalType": "string",
          "name": "",
          "type": "string"
        }
      ],
      "stateMutability": "view",
      "type": "function"
    },
    {
      "inputs": [
        {
          "internalType": "uint256",
          "name": "tokenId",
          "type": "uint256"
        }
      ],
      "name": "ownerOf",
      "outputs": [
        {
          "internalType": "address",
          "name": "",
          "type": "address"
        }
      ],
      "stateMutability": "view",
      "type": "function"
    },
    {
      "inputs": [],
      "name": "paidAmount",
      "outputs": [
        {
          "internalType": "uint256",
          "name": "",
          "type": "uint256"
        }
      ],
      "stateMutability": "view",
      "type": "function"
    },
    {
      "inputs": [],
      "name": "payLoan",
      "outputs": [],
      "stateMutability": "payable",
      "type": "function"
    },
    {
      "inputs": [],
      "name": "payoutRate",
      "outputs": [
        {
          "internalType": "uint16",
          "name": "",
          "type": "uint16"
        }
      ],
      "stateMutability": "view",
      "type": "function"
    },
    {
      "inputs": [
        {
          "internalType": "address",
          "name": "from",
          "type": "address"
        },
        {
          "internalType": "address",
          "name": "to",
          "type": "address"
        },
        {
          "internalType": "uint256",
          "name": "tokenId",
          "type": "uint256"
        }
      ],
      "name": "safeTransferFrom",
      "outputs": [],
      "stateMutability": "nonpayable",
      "type": "function"
    },
    {
      "inputs": [
        {
          "internalType": "address",
          "name": "from",
          "type": "address"
        },
        {
          "internalType": "address",
          "name": "to",
          "type": "address"
        },
        {
          "internalType": "uint256",
          "name": "tokenId",
          "type": "uint256"
        },
        {
          "internalType": "bytes",
          "name": "data",
          "type": "bytes"
        }
      ],
      "name": "safeTransferFrom",
      "outputs": [],
      "stateMutability": "nonpayable",
      "type": "function"
    },
    {
      "inputs": [
        {
          "internalType": "address",
          "name": "operator",
          "type": "address"
        },
        {
          "internalType": "bool",
          "name": "approved",
          "type": "bool"
        }
      ],
      "name": "setApprovalForAll",
      "outputs": [],
      "stateMutability": "nonpayable",
      "type": "function"
    },
    {
      "inputs": [
        {
          "internalType": "bytes4",
          "name": "interfaceId",
          "type": "bytes4"
        }
      ],
      "name": "supportsInterface",
      "outputs": [
        {
          "internalType": "bool",
          "name": "",
          "type": "bool"
        }
      ],
      "stateMutability": "view",
      "type": "function"
    },
    {
      "inputs": [],
      "name": "symbol",
      "outputs": [
        {
          "internalType": "string",
          "name": "",
          "type": "string"
        }
      ],
      "stateMutability": "view",
      "type": "function"
    },
    {
      "inputs": [],
      "name": "timeOfCreation",
      "outputs": [
        {
          "internalType": "uint256",
          "name": "",
          "type": "uint256"
        }
      ],
      "stateMutability": "view",
      "type": "function"
    },
    {
      "inputs": [
        {
          "internalType": "uint256",
          "name": "tokenId",
          "type": "uint256"
        }
      ],
      "name": "tokenURI",
      "outputs": [
        {
          "internalType": "string",
          "name": "",
          "type": "string"
        }
      ],
      "stateMutability": "view",
      "type": "function"
    },
    {
      "inputs": [
        {
          "internalType": "address",
          "name": "from",
          "type": "address"
        },
        {
          "internalType": "address",
          "name": "to",
          "type": "address"
        },
        {
          "internalType": "uint256",
          "name": "tokenId",
          "type": "uint256"
        }
      ],
      "name": "transferFrom",
      "outputs": [],
      "stateMutability": "nonpayable",
      "type": "function"
    },
    {
      "inputs": [
        {
          "internalType": "uint256",
          "name": "_amount",
          "type": "uint256"
        }
      ],
      "name": "withdrawBorrower",
      "outputs": [],
      "stateMutability": "nonpayable",
      "type": "function"
    },
    {
      "inputs": [
        {
          "internalType": "uint256",
          "name": "_amount",
          "type": "uint256"
        },
        {
          "internalType": "uint256",
          "name": "_loanId",
          "type": "uint256"
        }
      ],
      "name": "withdrawLender",
      "outputs": [],
      "stateMutability": "nonpayable",
      "type": "function"
    },
    {
      "inputs": [
        {
          "internalType": "uint256",
          "name": "_loanId",
          "type": "uint256"
        }
      ],
      "name": "withdrawLenderDeprecatedLoan",
      "outputs": [],
      "stateMutability": "nonpayable",
      "type": "function"
    },
    {
      "inputs": [],
      "name": "withdrawnAmount",
      "outputs": [
        {
          "internalType": "uint256",
          "name": "",
          "type": "uint256"
        }
      ],
      "stateMutability": "view",
      "type": "function"
    }
  ],
  "bytecode": "0x6101406040523480156200001257600080fd5b50604051620049763803806200497683398181016040528101906200003891906200040d565b878781600090816200004b919062000774565b5080600190816200005d919062000774565b505050600086116200006e57600080fd5b60008561ffff161180156200008957506127108561ffff1611155b6200009357600080fd5b60008411620000a157600080fd5b3273ffffffffffffffffffffffffffffffffffffffff168373ffffffffffffffffffffffffffffffffffffffff1614620000da57600080fd5b60008211620000e857600080fd5b6000815111620000f757600080fd5b60008851116200010657600080fd5b60008751116200011557600080fd5b85608081815250508461ffff1660c08161ffff16815250508360a081815250508273ffffffffffffffffffffffffffffffffffffffff166101208173ffffffffffffffffffffffffffffffffffffffff16815250508161010081815250504260e0818152505080600a90816200018c919062000774565b5050505050505050506200085b565b6000604051905090565b600080fd5b600080fd5b600080fd5b600080fd5b6000601f19601f8301169050919050565b7f4e487b7100000000000000000000000000000000000000000000000000000000600052604160045260246000fd5b6200020482620001b9565b810181811067ffffffffffffffff82111715620002265762000225620001ca565b5b80604052505050565b60006200023b6200019b565b9050620002498282620001f9565b919050565b600067ffffffffffffffff8211156200026c576200026b620001ca565b5b6200027782620001b9565b9050602081019050919050565b60005b83811015620002a457808201518184015260208101905062000287565b60008484015250505050565b6000620002c7620002c1846200024e565b6200022f565b905082815260208101848484011115620002e657620002e5620001b4565b5b620002f384828562000284565b509392505050565b600082601f830112620003135762000312620001af565b5b815162000325848260208601620002b0565b91505092915050565b6000819050919050565b62000343816200032e565b81146200034f57600080fd5b50565b600081519050620003638162000338565b92915050565b600061ffff82169050919050565b620003828162000369565b81146200038e57600080fd5b50565b600081519050620003a28162000377565b92915050565b600073ffffffffffffffffffffffffffffffffffffffff82169050919050565b6000620003d582620003a8565b9050919050565b620003e781620003c8565b8114620003f357600080fd5b50565b6000815190506200040781620003dc565b92915050565b600080600080600080600080610100898b031215620004315762000430620001a5565b5b600089015167ffffffffffffffff811115620004525762000451620001aa565b5b620004608b828c01620002fb565b985050602089015167ffffffffffffffff811115620004845762000483620001aa565b5b620004928b828c01620002fb565b9750506040620004a58b828c0162000352565b9650506060620004b88b828c0162000391565b9550506080620004cb8b828c0162000352565b94505060a0620004de8b828c01620003f6565b93505060c0620004f18b828c0162000352565b92505060e089015167ffffffffffffffff811115620005155762000514620001aa565b5b620005238b828c01620002fb565b9150509295985092959890939650565b600081519050919050565b7f4e487b7100000000000000000000000000000000000000000000000000000000600052602260045260246000fd5b600060028204905060018216806200058657607f821691505b6020821081036200059c576200059b6200053e565b5b50919050565b60008190508160005260206000209050919050565b60006020601f8301049050919050565b600082821b905092915050565b600060088302620006067fffffffffffffffffffffffffffffffffffffffffffffffffffffffffffffffff82620005c7565b620006128683620005c7565b95508019841693508086168417925050509392505050565b6000819050919050565b6000620006556200064f62000649846200032e565b6200062a565b6200032e565b9050919050565b6000819050919050565b620006718362000634565b6200068962000680826200065c565b848454620005d4565b825550505050565b600090565b620006a062000691565b620006ad81848462000666565b505050565b5b81811015620006d557620006c960008262000696565b600181019050620006b3565b5050565b601f8211156200072457620006ee81620005a2565b620006f984620005b7565b8101602085101562000709578190505b620007216200071885620005b7565b830182620006b2565b50505b505050565b600082821c905092915050565b6000620007496000198460080262000729565b1980831691505092915050565b600062000764838362000736565b9150826002028217905092915050565b6200077f8262000533565b67ffffffffffffffff8111156200079b576200079a620001ca565b5b620007a782546200056d565b620007b4828285620006d9565b600060209050601f831160018114620007ec5760008415620007d7578287015190505b620007e3858262000756565b86555062000853565b601f198416620007fc86620005a2565b60005b828110156200082657848901518255600182019150602085019450602081019050620007ff565b8683101562000846578489015162000842601f89168262000736565b8355505b6001600288020188555050505b505050505050565b60805160a05160c05160e05161010051610120516140696200090d60003960008181610b9d0152818161118701528181611893015261198e0152600081816111bc0152818161167b0152611c37015260008181610a71015281816111f101526116b001526000610af5015260008181610c2b01526117e7015260008181610b3901528181610c4c01528181610e570152818161125d015281816115c30152818161180b015261182f01526140696000f3fe6080604052600436106101e35760003560e01c8063820a5f5011610102578063a22cb46511610095578063e392713911610064578063e3927139146106b6578063e985e9c5146106f3578063f356d68914610730578063ff238cd01461075b576101e3565b8063a22cb465146105ea578063b88d4fde14610613578063c82233461461063c578063c87b56dd14610679576101e3565b806397dffc61116100d157806397dffc61146105615780639bcb55721461056b5780639d585f7f14610596578063a1f5d4da146105c1576101e3565b8063820a5f50146104b7578063830de4b1146104e25780638cf0fc541461050d57806395d89b4114610536576101e3565b806342842e0e1161017a5780636d0646ee116101495780636d0646ee146103fb57806370a082311461042457806373cb2ddc146104615780637df1f1b91461048c576101e3565b806342842e0e14610360578063472eb03d146103895780636352211e146103935780636c0360eb146103d0576101e3565b806312fa769f116101b657806312fa769f146102b65780631dcd69ec146102e157806323b872dd1461030c5780632b4353f214610335576101e3565b806301ffc9a7146101e857806306fdde0314610225578063081812fc14610250578063095ea7b31461028d575b600080fd5b3480156101f457600080fd5b5061020f600480360381019061020a9190612920565b610798565b60405161021c9190612968565b60405180910390f35b34801561023157600080fd5b5061023a61087a565b6040516102479190612a13565b60405180910390f35b34801561025c57600080fd5b5061027760048036038101906102729190612a6b565b61090c565b6040516102849190612ad9565b60405180910390f35b34801561029957600080fd5b506102b460048036038101906102af9190612b20565b610952565b005b3480156102c257600080fd5b506102cb610a69565b6040516102d89190612b6f565b60405180910390f35b3480156102ed57600080fd5b506102f6610a6f565b6040516103039190612b6f565b60405180910390f35b34801561031857600080fd5b50610333600480360381019061032e9190612b8a565b610a93565b005b34801561034157600080fd5b5061034a610af3565b6040516103579190612bfa565b60405180910390f35b34801561036c57600080fd5b5061038760048036038101906103829190612b8a565b610b17565b005b610391610b37565b005b34801561039f57600080fd5b506103ba60048036038101906103b59190612a6b565b610d16565b6040516103c79190612ad9565b60405180910390f35b3480156103dc57600080fd5b506103e5610dc7565b6040516103f29190612a13565b60405180910390f35b34801561040757600080fd5b50610422600480360381019061041d9190612c15565b610e55565b005b34801561043057600080fd5b5061044b60048036038101906104469190612c55565b6110b4565b6040516104589190612b6f565b60405180910390f35b34801561046d57600080fd5b5061047661116b565b6040516104839190612ca5565b60405180910390f35b34801561049857600080fd5b506104a1611185565b6040516104ae9190612ad9565b60405180910390f35b3480156104c357600080fd5b506104cc6111a9565b6040516104d99190612b6f565b60405180910390f35b3480156104ee57600080fd5b506104f76111af565b6040516105049190612b6f565b60405180910390f35b34801561051957600080fd5b50610534600480360381019061052f9190612a6b565b6111b5565b005b34801561054257600080fd5b5061054b61152f565b6040516105589190612a13565b60405180910390f35b6105696115c1565b005b34801561057757600080fd5b506105806117e5565b60405161058d9190612b6f565b60405180910390f35b3480156105a257600080fd5b506105ab611809565b6040516105b89190612b6f565b60405180910390f35b3480156105cd57600080fd5b506105e860048036038101906105e39190612a6b565b61182d565b005b3480156105f657600080fd5b50610611600480360381019061060c9190612cec565b611a91565b005b34801561061f57600080fd5b5061063a60048036038101906106359190612e61565b611aa7565b005b34801561064857600080fd5b50610663600480360381019061065e9190612a6b565b611b09565b6040516106709190612b6f565b60405180910390f35b34801561068557600080fd5b506106a0600480360381019061069b9190612a6b565b611b21565b6040516106ad9190612a13565b60405180910390f35b3480156106c257600080fd5b506106dd60048036038101906106d89190612a6b565b611b89565b6040516106ea9190612b6f565b60405180910390f35b3480156106ff57600080fd5b5061071a60048036038101906107159190612ee4565b611ba1565b6040516107279190612968565b60405180910390f35b34801561073c57600080fd5b50610745611c35565b6040516107529190612b6f565b60405180910390f35b34801561076757600080fd5b50610782600480360381019061077d9190612a6b565b611c59565b60405161078f9190612b6f565b60405180910390f35b60007f80ac58cd000000000000000000000000000000000000000000000000000000007bffffffffffffffffffffffffffffffffffffffffffffffffffffffff1916827bffffffffffffffffffffffffffffffffffffffffffffffffffffffff1916148061086357507f5b5e139f000000000000000000000000000000000000000000000000000000007bffffffffffffffffffffffffffffffffffffffffffffffffffffffff1916827bffffffffffffffffffffffffffffffffffffffffffffffffffffffff1916145b80610873575061087282611c90565b5b9050919050565b60606000805461088990612f53565b80601f01602080910402602001604051908101604052809291908181526020018280546108b590612f53565b80156109025780601f106108d757610100808354040283529160200191610902565b820191906000526020600020905b8154815290600101906020018083116108e557829003601f168201915b5050505050905090565b600061091782611cfa565b6004600083815260200190815260200160002060009054906101000a900473ffffffffffffffffffffffffffffffffffffffff169050919050565b600061095d82610d16565b90508073ffffffffffffffffffffffffffffffffffffffff168373ffffffffffffffffffffffffffffffffffffffff16036109cd576040517f08c379a00000000000000000000000000000000000000000000000000000000081526004016109c490612ff6565b60405180910390fd5b8073ffffffffffffffffffffffffffffffffffffffff166109ec611d45565b73ffffffffffffffffffffffffffffffffffffffff161480610a1b5750610a1a81610a15611d45565b611ba1565b5b610a5a576040517f08c379a0000000000000000000000000000000000000000000000000000000008152600401610a5190613088565b60405180910390fd5b610a648383611d4d565b505050565b60085481565b7f000000000000000000000000000000000000000000000000000000000000000081565b610aa4610a9e611d45565b82611e06565b610ae3576040517f08c379a0000000000000000000000000000000000000000000000000000000008152600401610ada9061311a565b60405180910390fd5b610aee838383611e9b565b505050565b7f000000000000000000000000000000000000000000000000000000000000000081565b610b3283838360405180602001604052806000815250611aa7565b505050565b7f000000000000000000000000000000000000000000000000000000000000000060065414610b9b576040517f08c379a0000000000000000000000000000000000000000000000000000000008152600401610b9290613186565b60405180910390fd5b7f000000000000000000000000000000000000000000000000000000000000000073ffffffffffffffffffffffffffffffffffffffff163373ffffffffffffffffffffffffffffffffffffffff1614610c29576040517f08c379a0000000000000000000000000000000000000000000000000000000008152600401610c20906131f2565b60405180910390fd5b7f00000000000000000000000000000000000000000000000000000000000000007f0000000000000000000000000000000000000000000000000000000000000000610c759190613241565b34600854610c839190613241565b1115610cc4576040517f08c379a0000000000000000000000000000000000000000000000000000000008152600401610cbb906132c1565b60405180910390fd5b3460086000828254610cd69190613241565b925050819055507f55756edcf77bbfc971bef12ee8d65aa0aff64e901d2bea09c92f0f2a3103980e34604051610d0c9190612b6f565b60405180910390a1565b6000806002600084815260200190815260200160002060009054906101000a900473ffffffffffffffffffffffffffffffffffffffff169050600073ffffffffffffffffffffffffffffffffffffffff168173ffffffffffffffffffffffffffffffffffffffff1603610dbe576040517f08c379a0000000000000000000000000000000000000000000000000000000008152600401610db59061332d565b60405180910390fd5b80915050919050565b600a8054610dd490612f53565b80601f0160208091040260200160405190810160405280929190818152602001828054610e0090612f53565b8015610e4d5780601f10610e2257610100808354040283529160200191610e4d565b820191906000526020600020905b815481529060010190602001808311610e3057829003601f168201915b505050505081565b7f000000000000000000000000000000000000000000000000000000000000000060065414610eb9576040517f08c379a0000000000000000000000000000000000000000000000000000000008152600401610eb090613186565b60405180910390fd5b610ec281610d16565b73ffffffffffffffffffffffffffffffffffffffff163373ffffffffffffffffffffffffffffffffffffffff1614610f2f576040517f08c379a0000000000000000000000000000000000000000000000000000000008152600401610f26906133bf565b60405180910390fd5b6000600c600083815260200190815260200160002054610f4e83611c59565b610f5891906133df565b905080831115610f9d576040517f08c379a0000000000000000000000000000000000000000000000000000000008152600401610f9490613485565b60405180910390fd5b82600c60008481526020019081526020016000206000828254610fc09190613241565b9250508190555060003373ffffffffffffffffffffffffffffffffffffffff1684604051610fed906134d6565b60006040518083038185875af1925050503d806000811461102a576040519150601f19603f3d011682016040523d82523d6000602084013e61102f565b606091505b5050905080611073576040517f08c379a000000000000000000000000000000000000000000000000000000000815260040161106a90613537565b60405180910390fd5b7f3b6d6c6656cbdd1a4cb44d7e359361fef85568deda3f84b2e95c5f98dd3c27168484336040516110a693929190613557565b60405180910390a150505050565b60008073ffffffffffffffffffffffffffffffffffffffff168273ffffffffffffffffffffffffffffffffffffffff1603611124576040517f08c379a000000000000000000000000000000000000000000000000000000000815260040161111b90613600565b60405180910390fd5b600360008373ffffffffffffffffffffffffffffffffffffffff1673ffffffffffffffffffffffffffffffffffffffff168152602001908152602001600020549050919050565b600960009054906101000a900467ffffffffffffffff1681565b7f000000000000000000000000000000000000000000000000000000000000000081565b60065481565b60075481565b610e1060187f00000000000000000000000000000000000000000000000000000000000000006111e59190613620565b6111ef9190613620565b7f000000000000000000000000000000000000000000000000000000000000000061121a9190613241565b421161125b576040517f08c379a0000000000000000000000000000000000000000000000000000000008152600401611252906136ec565b60405180910390fd5b7f0000000000000000000000000000000000000000000000000000000000000000600654106112bf576040517f08c379a00000000000000000000000000000000000000000000000000000000081526004016112b69061377e565b60405180910390fd5b6112c881610d16565b73ffffffffffffffffffffffffffffffffffffffff163373ffffffffffffffffffffffffffffffffffffffff1614611335576040517f08c379a000000000000000000000000000000000000000000000000000000000815260040161132c906133bf565b60405180910390fd5b6000600c600083815260200190815260200160002054600b60008481526020019081526020016000205461136991906133df565b116113a9576040517f08c379a00000000000000000000000000000000000000000000000000000000081526004016113a0906137ea565b60405180910390fd5b600b600082815260200190815260200160002054600c600083815260200190815260200160002060008282546113df9190613241565b9250508190555060003373ffffffffffffffffffffffffffffffffffffffff16600c600084815260200190815260200160002054600b60008581526020019081526020016000205461143191906133df565b60405161143d906134d6565b60006040518083038185875af1925050503d806000811461147a576040519150601f19603f3d011682016040523d82523d6000602084013e61147f565b606091505b50509050806114c3576040517f08c379a00000000000000000000000000000000000000000000000000000000081526004016114ba90613537565b60405180910390fd5b7f857f5118c69e9d461625af9f76150e791dbb9eb03ebb92f103c926b0d6a0b7f5600c600084815260200190815260200160002054600b60008581526020019081526020016000205461151691906133df565b6040516115239190612b6f565b60405180910390a15050565b60606001805461153e90612f53565b80601f016020809104026020016040519081016040528092919081815260200182805461156a90612f53565b80156115b75780601f1061158c576101008083540402835291602001916115b7565b820191906000526020600020905b81548152906001019060200180831161159a57829003601f168201915b5050505050905090565b7f0000000000000000000000000000000000000000000000000000000000000000600654346115f09190613241565b1115611631576040517f08c379a00000000000000000000000000000000000000000000000000000000081526004016116289061387c565b60405180910390fd5b60003411611674576040517f08c379a000000000000000000000000000000000000000000000000000000000815260040161166b906138e8565b60405180910390fd5b610e1060187f00000000000000000000000000000000000000000000000000000000000000006116a49190613620565b6116ae9190613620565b7f00000000000000000000000000000000000000000000000000000000000000006116d99190613241565b42111561171b576040517f08c379a00000000000000000000000000000000000000000000000000000000081526004016117129061397a565b60405180910390fd5b346006600082825461172d9190613241565b9250508190555061175e33600960009054906101000a900467ffffffffffffffff1667ffffffffffffffff16612101565b34600b6000600960009054906101000a900467ffffffffffffffff1667ffffffffffffffff168152602001908152602001600020819055506009600081819054906101000a900467ffffffffffffffff16809291906117bc9061399a565b91906101000a81548167ffffffffffffffff021916908367ffffffffffffffff16021790555050565b7f000000000000000000000000000000000000000000000000000000000000000081565b7f000000000000000000000000000000000000000000000000000000000000000081565b7f000000000000000000000000000000000000000000000000000000000000000060065414611891576040517f08c379a000000000000000000000000000000000000000000000000000000000815260040161188890613186565b60405180910390fd5b7f000000000000000000000000000000000000000000000000000000000000000073ffffffffffffffffffffffffffffffffffffffff163373ffffffffffffffffffffffffffffffffffffffff161461191f576040517f08c379a000000000000000000000000000000000000000000000000000000000815260040161191690613a3c565b60405180910390fd5b600654816007546119309190613241565b1115611971576040517f08c379a000000000000000000000000000000000000000000000000000000000815260040161196890613ace565b60405180910390fd5b80600760008282546119839190613241565b9250508190555060007f000000000000000000000000000000000000000000000000000000000000000073ffffffffffffffffffffffffffffffffffffffff16826040516119d0906134d6565b60006040518083038185875af1925050503d8060008114611a0d576040519150601f19603f3d011682016040523d82523d6000602084013e611a12565b606091505b5050905080611a56576040517f08c379a0000000000000000000000000000000000000000000000000000000008152600401611a4d90613537565b60405180910390fd5b7f857f5118c69e9d461625af9f76150e791dbb9eb03ebb92f103c926b0d6a0b7f582604051611a859190612b6f565b60405180910390a15050565b611aa3611a9c611d45565b83836122da565b5050565b611ab8611ab2611d45565b83611e06565b611af7576040517f08c379a0000000000000000000000000000000000000000000000000000000008152600401611aee9061311a565b60405180910390fd5b611b0384848484612446565b50505050565b600c6020528060005260406000206000915090505481565b6060611b2c82611cfa565b6000611b366124a2565b90506000815111611b565760405180602001604052806000815250611b81565b80611b6084612534565b604051602001611b71929190613b2a565b6040516020818303038152906040525b915050919050565b600b6020528060005260406000206000915090505481565b6000600560008473ffffffffffffffffffffffffffffffffffffffff1673ffffffffffffffffffffffffffffffffffffffff16815260200190815260200160002060008373ffffffffffffffffffffffffffffffffffffffff1673ffffffffffffffffffffffffffffffffffffffff16815260200190815260200160002060009054906101000a900460ff16905092915050565b7f000000000000000000000000000000000000000000000000000000000000000081565b6000600654600b600084815260200190815260200160002054600854611c7f9190613620565b611c899190613b7d565b9050919050565b60007f01ffc9a7000000000000000000000000000000000000000000000000000000007bffffffffffffffffffffffffffffffffffffffffffffffffffffffff1916827bffffffffffffffffffffffffffffffffffffffffffffffffffffffff1916149050919050565b611d0381612694565b611d42576040517f08c379a0000000000000000000000000000000000000000000000000000000008152600401611d399061332d565b60405180910390fd5b50565b600033905090565b816004600083815260200190815260200160002060006101000a81548173ffffffffffffffffffffffffffffffffffffffff021916908373ffffffffffffffffffffffffffffffffffffffff160217905550808273ffffffffffffffffffffffffffffffffffffffff16611dc083610d16565b73ffffffffffffffffffffffffffffffffffffffff167f8c5be1e5ebec7d5bd14f71427d1e84f3dd0314c0f7b2291e5b200ac8c7c3b92560405160405180910390a45050565b600080611e1283610d16565b90508073ffffffffffffffffffffffffffffffffffffffff168473ffffffffffffffffffffffffffffffffffffffff161480611e545750611e538185611ba1565b5b80611e9257508373ffffffffffffffffffffffffffffffffffffffff16611e7a8461090c565b73ffffffffffffffffffffffffffffffffffffffff16145b91505092915050565b8273ffffffffffffffffffffffffffffffffffffffff16611ebb82610d16565b73ffffffffffffffffffffffffffffffffffffffff1614611f11576040517f08c379a0000000000000000000000000000000000000000000000000000000008152600401611f0890613c20565b60405180910390fd5b600073ffffffffffffffffffffffffffffffffffffffff168273ffffffffffffffffffffffffffffffffffffffff1603611f80576040517f08c379a0000000000000000000000000000000000000000000000000000000008152600401611f7790613cb2565b60405180910390fd5b611f8b838383612700565b611f96600082611d4d565b6001600360008573ffffffffffffffffffffffffffffffffffffffff1673ffffffffffffffffffffffffffffffffffffffff1681526020019081526020016000206000828254611fe691906133df565b925050819055506001600360008473ffffffffffffffffffffffffffffffffffffffff1673ffffffffffffffffffffffffffffffffffffffff168152602001908152602001600020600082825461203d9190613241565b92505081905550816002600083815260200190815260200160002060006101000a81548173ffffffffffffffffffffffffffffffffffffffff021916908373ffffffffffffffffffffffffffffffffffffffff160217905550808273ffffffffffffffffffffffffffffffffffffffff168473ffffffffffffffffffffffffffffffffffffffff167fddf252ad1be2c89b69c2b068fc378daa952ba7f163c4a11628f55a4df523b3ef60405160405180910390a46120fc838383612705565b505050565b600073ffffffffffffffffffffffffffffffffffffffff168273ffffffffffffffffffffffffffffffffffffffff1603612170576040517f08c379a000000000000000000000000000000000000000000000000000000000815260040161216790613d1e565b60405180910390fd5b61217981612694565b156121b9576040517f08c379a00000000000000000000000000000000000000000000000000000000081526004016121b090613d8a565b60405180910390fd5b6121c560008383612700565b6001600360008473ffffffffffffffffffffffffffffffffffffffff1673ffffffffffffffffffffffffffffffffffffffff16815260200190815260200160002060008282546122159190613241565b92505081905550816002600083815260200190815260200160002060006101000a81548173ffffffffffffffffffffffffffffffffffffffff021916908373ffffffffffffffffffffffffffffffffffffffff160217905550808273ffffffffffffffffffffffffffffffffffffffff16600073ffffffffffffffffffffffffffffffffffffffff167fddf252ad1be2c89b69c2b068fc378daa952ba7f163c4a11628f55a4df523b3ef60405160405180910390a46122d660008383612705565b5050565b8173ffffffffffffffffffffffffffffffffffffffff168373ffffffffffffffffffffffffffffffffffffffff1603612348576040517f08c379a000000000000000000000000000000000000000000000000000000000815260040161233f90613df6565b60405180910390fd5b80600560008573ffffffffffffffffffffffffffffffffffffffff1673ffffffffffffffffffffffffffffffffffffffff16815260200190815260200160002060008473ffffffffffffffffffffffffffffffffffffffff1673ffffffffffffffffffffffffffffffffffffffff16815260200190815260200160002060006101000a81548160ff0219169083151502179055508173ffffffffffffffffffffffffffffffffffffffff168373ffffffffffffffffffffffffffffffffffffffff167f17307eab39ab6107e8899845ad3d59bd9653f200f220920489ca2b5937696c31836040516124399190612968565b60405180910390a3505050565b612451848484611e9b565b61245d8484848461270a565b61249c576040517f08c379a000000000000000000000000000000000000000000000000000000000815260040161249390613e88565b60405180910390fd5b50505050565b6060600a80546124b190612f53565b80601f01602080910402602001604051908101604052809291908181526020018280546124dd90612f53565b801561252a5780601f106124ff5761010080835404028352916020019161252a565b820191906000526020600020905b81548152906001019060200180831161250d57829003601f168201915b5050505050905090565b60606000820361257b576040518060400160405280600181526020017f3000000000000000000000000000000000000000000000000000000000000000815250905061268f565b600082905060005b600082146125ad57808061259690613ea8565b915050600a826125a69190613b7d565b9150612583565b60008167ffffffffffffffff8111156125c9576125c8612d36565b5b6040519080825280601f01601f1916602001820160405280156125fb5781602001600182028036833780820191505090505b5090505b600085146126885760018261261491906133df565b9150600a856126239190613ef0565b603061262f9190613241565b60f81b81838151811061264557612644613f21565b5b60200101907effffffffffffffffffffffffffffffffffffffffffffffffffffffffffffff1916908160001a905350600a856126819190613b7d565b94506125ff565b8093505050505b919050565b60008073ffffffffffffffffffffffffffffffffffffffff166002600084815260200190815260200160002060009054906101000a900473ffffffffffffffffffffffffffffffffffffffff1673ffffffffffffffffffffffffffffffffffffffff1614159050919050565b505050565b505050565b600061272b8473ffffffffffffffffffffffffffffffffffffffff16612891565b15612884578373ffffffffffffffffffffffffffffffffffffffff1663150b7a02612754611d45565b8786866040518563ffffffff1660e01b81526004016127769493929190613fa5565b6020604051808303816000875af19250505080156127b257506040513d601f19601f820116820180604052508101906127af9190614006565b60015b612834573d80600081146127e2576040519150601f19603f3d011682016040523d82523d6000602084013e6127e7565b606091505b50600081510361282c576040517f08c379a000000000000000000000000000000000000000000000000000000000815260040161282390613e88565b60405180910390fd5b805181602001fd5b63150b7a0260e01b7bffffffffffffffffffffffffffffffffffffffffffffffffffffffff1916817bffffffffffffffffffffffffffffffffffffffffffffffffffffffff191614915050612889565b600190505b949350505050565b6000808273ffffffffffffffffffffffffffffffffffffffff163b119050919050565b6000604051905090565b600080fd5b600080fd5b60007fffffffff0000000000000000000000000000000000000000000000000000000082169050919050565b6128fd816128c8565b811461290857600080fd5b50565b60008135905061291a816128f4565b92915050565b600060208284031215612936576129356128be565b5b60006129448482850161290b565b91505092915050565b60008115159050919050565b6129628161294d565b82525050565b600060208201905061297d6000830184612959565b92915050565b600081519050919050565b600082825260208201905092915050565b60005b838110156129bd5780820151818401526020810190506129a2565b60008484015250505050565b6000601f19601f8301169050919050565b60006129e582612983565b6129ef818561298e565b93506129ff81856020860161299f565b612a08816129c9565b840191505092915050565b60006020820190508181036000830152612a2d81846129da565b905092915050565b6000819050919050565b612a4881612a35565b8114612a5357600080fd5b50565b600081359050612a6581612a3f565b92915050565b600060208284031215612a8157612a806128be565b5b6000612a8f84828501612a56565b91505092915050565b600073ffffffffffffffffffffffffffffffffffffffff82169050919050565b6000612ac382612a98565b9050919050565b612ad381612ab8565b82525050565b6000602082019050612aee6000830184612aca565b92915050565b612afd81612ab8565b8114612b0857600080fd5b50565b600081359050612b1a81612af4565b92915050565b60008060408385031215612b3757612b366128be565b5b6000612b4585828601612b0b565b9250506020612b5685828601612a56565b9150509250929050565b612b6981612a35565b82525050565b6000602082019050612b846000830184612b60565b92915050565b600080600060608486031215612ba357612ba26128be565b5b6000612bb186828701612b0b565b9350506020612bc286828701612b0b565b9250506040612bd386828701612a56565b9150509250925092565b600061ffff82169050919050565b612bf481612bdd565b82525050565b6000602082019050612c0f6000830184612beb565b92915050565b60008060408385031215612c2c57612c2b6128be565b5b6000612c3a85828601612a56565b9250506020612c4b85828601612a56565b9150509250929050565b600060208284031215612c6b57612c6a6128be565b5b6000612c7984828501612b0b565b91505092915050565b600067ffffffffffffffff82169050919050565b612c9f81612c82565b82525050565b6000602082019050612cba6000830184612c96565b92915050565b612cc98161294d565b8114612cd457600080fd5b50565b600081359050612ce681612cc0565b92915050565b60008060408385031215612d0357612d026128be565b5b6000612d1185828601612b0b565b9250506020612d2285828601612cd7565b9150509250929050565b600080fd5b600080fd5b7f4e487b7100000000000000000000000000000000000000000000000000000000600052604160045260246000fd5b612d6e826129c9565b810181811067ffffffffffffffff82111715612d8d57612d8c612d36565b5b80604052505050565b6000612da06128b4565b9050612dac8282612d65565b919050565b600067ffffffffffffffff821115612dcc57612dcb612d36565b5b612dd5826129c9565b9050602081019050919050565b82818337600083830152505050565b6000612e04612dff84612db1565b612d96565b905082815260208101848484011115612e2057612e1f612d31565b5b612e2b848285612de2565b509392505050565b600082601f830112612e4857612e47612d2c565b5b8135612e58848260208601612df1565b91505092915050565b60008060008060808587031215612e7b57612e7a6128be565b5b6000612e8987828801612b0b565b9450506020612e9a87828801612b0b565b9350506040612eab87828801612a56565b925050606085013567ffffffffffffffff811115612ecc57612ecb6128c3565b5b612ed887828801612e33565b91505092959194509250565b60008060408385031215612efb57612efa6128be565b5b6000612f0985828601612b0b565b9250506020612f1a85828601612b0b565b9150509250929050565b7f4e487b7100000000000000000000000000000000000000000000000000000000600052602260045260246000fd5b60006002820490506001821680612f6b57607f821691505b602082108103612f7e57612f7d612f24565b5b50919050565b7f4552433732313a20617070726f76616c20746f2063757272656e74206f776e6560008201527f7200000000000000000000000000000000000000000000000000000000000000602082015250565b6000612fe060218361298e565b9150612feb82612f84565b604082019050919050565b6000602082019050818103600083015261300f81612fd3565b9050919050565b7f4552433732313a20617070726f76652063616c6c6572206973206e6f7420746f60008201527f6b656e206f776e6572206e6f7220617070726f76656420666f7220616c6c0000602082015250565b6000613072603e8361298e565b915061307d82613016565b604082019050919050565b600060208201905081810360008301526130a181613065565b9050919050565b7f4552433732313a2063616c6c6572206973206e6f7420746f6b656e206f776e6560008201527f72206e6f7220617070726f766564000000000000000000000000000000000000602082015250565b6000613104602e8361298e565b915061310f826130a8565b604082019050919050565b60006020820190508181036000830152613133816130f7565b9050919050565b7f4c6f616e20686173206e6f74206265656e2066696c6c65642079657400000000600082015250565b6000613170601c8361298e565b915061317b8261313a565b602082019050919050565b6000602082019050818103600083015261319f81613163565b9050919050565b7f4e6f742074686520626f72726f77657200000000000000000000000000000000600082015250565b60006131dc60108361298e565b91506131e7826131a6565b602082019050919050565b6000602082019050818103600083015261320b816131cf565b9050919050565b7f4e487b7100000000000000000000000000000000000000000000000000000000600052601160045260246000fd5b600061324c82612a35565b915061325783612a35565b925082820190508082111561326f5761326e613212565b5b92915050565b7f43616e2774206f76657270617920746865206c6f616e00000000000000000000600082015250565b60006132ab60168361298e565b91506132b682613275565b602082019050919050565b600060208201905081810360008301526132da8161329e565b9050919050565b7f4552433732313a20696e76616c696420746f6b656e2049440000000000000000600082015250565b600061331760188361298e565b9150613322826132e1565b602082019050919050565b600060208201905081810360008301526133468161330a565b9050919050565b7f4f6e6c7920746865206c656e6465722063616e2077697468647261772074686560008201527f2066756e64730000000000000000000000000000000000000000000000000000602082015250565b60006133a960268361298e565b91506133b48261334d565b604082019050919050565b600060208201905081810360008301526133d88161339c565b9050919050565b60006133ea82612a35565b91506133f583612a35565b925082820390508181111561340d5761340c613212565b5b92915050565b7f43616e2774207769746864726177206d6f7265207468616e20796f757220706560008201527f7263656e74616765206f66207468652072617061696420616d6f756e74000000602082015250565b600061346f603d8361298e565b915061347a82613413565b604082019050919050565b6000602082019050818103600083015261349e81613462565b9050919050565b600081905092915050565b50565b60006134c06000836134a5565b91506134cb826134b0565b600082019050919050565b60006134e1826134b3565b9150819050919050565b7f4661696c656420746f2073656e64207468652066756e64730000000000000000600082015250565b600061352160188361298e565b915061352c826134eb565b602082019050919050565b6000602082019050818103600083015261355081613514565b9050919050565b600060608201905061356c6000830186612b60565b6135796020830185612b60565b6135866040830184612aca565b949350505050565b7f4552433732313a2061646472657373207a65726f206973206e6f74206120766160008201527f6c6964206f776e65720000000000000000000000000000000000000000000000602082015250565b60006135ea60298361298e565b91506135f58261358e565b604082019050919050565b60006020820190508181036000830152613619816135dd565b9050919050565b600061362b82612a35565b915061363683612a35565b9250817fffffffffffffffffffffffffffffffffffffffffffffffffffffffffffffffff048311821515161561366f5761366e613212565b5b828202905092915050565b7f48617665206e6f742072656163686564206465707265636174696f6e2074696d60008201527f656f757420796574000000000000000000000000000000000000000000000000602082015250565b60006136d660288361298e565b91506136e18261367a565b604082019050919050565b60006020820190508181036000830152613705816136c9565b9050919050565b7f4c6f616e20686173206265656e2066696c6c656420616e64206973206163746960008201527f7665000000000000000000000000000000000000000000000000000000000000602082015250565b600061376860228361298e565b91506137738261370c565b604082019050919050565b600060208201905081810360008301526137978161375b565b9050919050565b7f416c72656164792077697468647261776e2066756e6473000000000000000000600082015250565b60006137d460178361298e565b91506137df8261379e565b602082019050919050565b60006020820190508181036000830152613803816137c7565b9050919050565b7f457863656564696e672074686520617661696c61626c65206c6f616e20616d6f60008201527f756e740000000000000000000000000000000000000000000000000000000000602082015250565b600061386660238361298e565b91506138718261380a565b604082019050919050565b6000602082019050818103600083015261389581613859565b9050919050565b7f43616e2774206c656e6420302077656900000000000000000000000000000000600082015250565b60006138d260108361298e565b91506138dd8261389c565b602082019050919050565b60006020820190508181036000830152613901816138c5565b9050919050565b7f44657072656361746564206c6f616e2c206e6f7420616363657074696e67206460008201527f65706f7369747300000000000000000000000000000000000000000000000000602082015250565b600061396460278361298e565b915061396f82613908565b604082019050919050565b6000602082019050818103600083015261399381613957565b9050919050565b60006139a582612c82565b915067ffffffffffffffff82036139bf576139be613212565b5b600182019050919050565b7f4e6f742074686520626f72726f7765722c2063616e277420776974686472617760008201527f2066756e64730000000000000000000000000000000000000000000000000000602082015250565b6000613a2660268361298e565b9150613a31826139ca565b604082019050919050565b60006020820190508181036000830152613a5581613a19565b9050919050565b7f57697468647261776e2066756e6473206578636565642074686520746f74616c60008201527f20616d6f756e74206c656e740000000000000000000000000000000000000000602082015250565b6000613ab8602c8361298e565b9150613ac382613a5c565b604082019050919050565b60006020820190508181036000830152613ae781613aab565b9050919050565b600081905092915050565b6000613b0482612983565b613b0e8185613aee565b9350613b1e81856020860161299f565b80840191505092915050565b6000613b368285613af9565b9150613b428284613af9565b91508190509392505050565b7f4e487b7100000000000000000000000000000000000000000000000000000000600052601260045260246000fd5b6000613b8882612a35565b9150613b9383612a35565b925082613ba357613ba2613b4e565b5b828204905092915050565b7f4552433732313a207472616e736665722066726f6d20696e636f72726563742060008201527f6f776e6572000000000000000000000000000000000000000000000000000000602082015250565b6000613c0a60258361298e565b9150613c1582613bae565b604082019050919050565b60006020820190508181036000830152613c3981613bfd565b9050919050565b7f4552433732313a207472616e7366657220746f20746865207a65726f2061646460008201527f7265737300000000000000000000000000000000000000000000000000000000602082015250565b6000613c9c60248361298e565b9150613ca782613c40565b604082019050919050565b60006020820190508181036000830152613ccb81613c8f565b9050919050565b7f4552433732313a206d696e7420746f20746865207a65726f2061646472657373600082015250565b6000613d0860208361298e565b9150613d1382613cd2565b602082019050919050565b60006020820190508181036000830152613d3781613cfb565b9050919050565b7f4552433732313a20746f6b656e20616c7265616479206d696e74656400000000600082015250565b6000613d74601c8361298e565b9150613d7f82613d3e565b602082019050919050565b60006020820190508181036000830152613da381613d67565b9050919050565b7f4552433732313a20617070726f766520746f2063616c6c657200000000000000600082015250565b6000613de060198361298e565b9150613deb82613daa565b602082019050919050565b60006020820190508181036000830152613e0f81613dd3565b9050919050565b7f4552433732313a207472616e7366657220746f206e6f6e20455243373231526560008201527f63656976657220696d706c656d656e7465720000000000000000000000000000602082015250565b6000613e7260328361298e565b9150613e7d82613e16565b604082019050919050565b60006020820190508181036000830152613ea181613e65565b9050919050565b6000613eb382612a35565b91507fffffffffffffffffffffffffffffffffffffffffffffffffffffffffffffffff8203613ee557613ee4613212565b5b600182019050919050565b6000613efb82612a35565b9150613f0683612a35565b925082613f1657613f15613b4e565b5b828206905092915050565b7f4e487b7100000000000000000000000000000000000000000000000000000000600052603260045260246000fd5b600081519050919050565b600082825260208201905092915050565b6000613f7782613f50565b613f818185613f5b565b9350613f9181856020860161299f565b613f9a816129c9565b840191505092915050565b6000608082019050613fba6000830187612aca565b613fc76020830186612aca565b613fd46040830185612b60565b8181036060830152613fe68184613f6c565b905095945050505050565b600081519050614000816128f4565b92915050565b60006020828403121561401c5761401b6128be565b5b600061402a84828501613ff1565b9150509291505056fea264697066735822122093ef03138d59b6a9da5d963552cc139b24ecdad46c636c6b10f34ad4fba9020864736f6c63430008100033",
  "linkReferences": {},
  "deployedLinkReferences": {}
}